{
  "address": "0xeE4323A3099Bb8643bE5e62E628BFa7ea7908001",
  "abi": [
    {
      "inputs": [
        {
          "internalType": "uint8",
          "name": "_percentOfRoyality",
          "type": "uint8"
        }
      ],
      "stateMutability": "nonpayable",
      "type": "constructor"
    },
    {
      "inputs": [
        {
          "internalType": "address",
          "name": "nftAddress",
          "type": "address"
        },
        {
          "internalType": "uint256",
          "name": "tokenId",
          "type": "uint256"
        }
      ],
      "name": "NftMarketPlace__AlreadyListed",
      "type": "error"
    },
    {
      "inputs": [],
      "name": "NftMarketPlace__NoProceeds",
      "type": "error"
    },
    {
      "inputs": [],
      "name": "NftMarketPlace__NotApprovedForMarketPlace",
      "type": "error"
    },
    {
      "inputs": [
        {
          "internalType": "address",
          "name": "nftAddress",
          "type": "address"
        },
        {
          "internalType": "uint256",
          "name": "tokenId",
          "type": "uint256"
        }
      ],
      "name": "NftMarketPlace__NotListed",
      "type": "error"
    },
    {
      "inputs": [
        {
          "internalType": "address",
          "name": "nftAddress",
          "type": "address"
        },
        {
          "internalType": "uint256",
          "name": "tokenId",
          "type": "uint256"
        },
        {
          "internalType": "uint256",
          "name": "nftPrice",
          "type": "uint256"
        }
      ],
      "name": "NftMarketPlace__PriceNotMet",
      "type": "error"
    },
    {
      "inputs": [],
      "name": "NotOwner",
      "type": "error"
    },
    {
      "anonymous": false,
      "inputs": [
        {
          "indexed": true,
          "internalType": "address",
          "name": "buyer",
          "type": "address"
        },
        {
          "indexed": true,
          "internalType": "address",
          "name": "nftAddress",
          "type": "address"
        },
        {
          "indexed": true,
          "internalType": "uint256",
          "name": "tokenId",
          "type": "uint256"
        },
        {
          "indexed": false,
          "internalType": "uint256",
          "name": "price",
          "type": "uint256"
        }
      ],
      "name": "ItemBought",
      "type": "event"
    },
    {
      "anonymous": false,
      "inputs": [
        {
          "indexed": true,
          "internalType": "address",
          "name": "seller",
          "type": "address"
        },
        {
          "indexed": true,
          "internalType": "address",
          "name": "nftAddress",
          "type": "address"
        },
        {
          "indexed": false,
          "internalType": "uint256",
          "name": "tokenId",
          "type": "uint256"
        }
      ],
      "name": "ItemCancled",
      "type": "event"
    },
    {
      "anonymous": false,
      "inputs": [
        {
          "indexed": true,
          "internalType": "address",
          "name": "seller",
          "type": "address"
        },
        {
          "indexed": true,
          "internalType": "address",
          "name": "nftAddress",
          "type": "address"
        },
        {
          "indexed": true,
          "internalType": "uint256",
          "name": "tokenId",
          "type": "uint256"
        },
        {
          "indexed": false,
          "internalType": "uint256",
          "name": "price",
          "type": "uint256"
        }
      ],
      "name": "ItemListed",
      "type": "event"
    },
    {
      "inputs": [],
      "name": "PERCENT_OF_ROYALITY",
      "outputs": [
        {
          "internalType": "uint8",
          "name": "",
          "type": "uint8"
        }
      ],
      "stateMutability": "view",
      "type": "function"
    },
    {
      "inputs": [
        {
          "internalType": "address",
          "name": "nftAddress",
          "type": "address"
        },
        {
          "internalType": "uint256",
          "name": "tokenId",
          "type": "uint256"
        }
      ],
      "name": "buyItem",
      "outputs": [],
      "stateMutability": "payable",
      "type": "function"
    },
    {
      "inputs": [
        {
          "internalType": "address",
          "name": "nftAddress",
          "type": "address"
        },
        {
          "internalType": "uint256",
          "name": "tokenId",
          "type": "uint256"
        }
      ],
      "name": "cancelListing",
      "outputs": [],
      "stateMutability": "nonpayable",
      "type": "function"
    },
    {
      "inputs": [
        {
          "internalType": "address",
          "name": "nftAddress",
          "type": "address"
        },
        {
          "internalType": "uint256",
          "name": "tokenId",
          "type": "uint256"
        }
      ],
      "name": "getListing",
      "outputs": [
        {
          "components": [
            {
              "internalType": "address",
              "name": "seller",
              "type": "address"
            },
            {
              "internalType": "uint256",
              "name": "price",
              "type": "uint256"
            }
          ],
          "internalType": "struct NftMarketplace.Listing",
          "name": "",
          "type": "tuple"
        }
      ],
      "stateMutability": "view",
      "type": "function"
    },
    {
      "inputs": [
        {
          "internalType": "address",
          "name": "seller",
          "type": "address"
        }
      ],
      "name": "getProceeds",
      "outputs": [
        {
          "internalType": "uint256",
          "name": "",
          "type": "uint256"
        }
      ],
      "stateMutability": "view",
      "type": "function"
    },
    {
      "inputs": [
        {
          "internalType": "address",
          "name": "nftAddress",
          "type": "address"
        },
        {
          "internalType": "uint256",
          "name": "tokenId",
          "type": "uint256"
        },
        {
          "internalType": "uint256",
          "name": "price",
          "type": "uint256"
        }
      ],
      "name": "listItem",
      "outputs": [],
      "stateMutability": "nonpayable",
      "type": "function"
    },
    {
      "inputs": [
        {
          "internalType": "address",
          "name": "nftAddress",
          "type": "address"
        },
        {
          "internalType": "uint256",
          "name": "tokenId",
          "type": "uint256"
        },
        {
          "internalType": "uint256",
          "name": "newPrice",
          "type": "uint256"
        }
      ],
      "name": "updateListing",
      "outputs": [],
      "stateMutability": "nonpayable",
      "type": "function"
    },
    {
      "inputs": [],
      "name": "withdrawProceeds",
      "outputs": [],
      "stateMutability": "nonpayable",
      "type": "function"
    }
  ],
  "transactionHash": "0x488bccbd31099bce8628cc00d5e1b64b9f27db46529efe6253fadcf3b208b989",
  "args": [
    0
  ],
  "numDeployments": 3,
  "solcInputHash": "7d1f85f11de4829dd6c57e40aef903d9",
  "bytecode": "0x60a06040523480156200001157600080fd5b5060405162001d2738038062001d27833981810160405281019062000037919062000097565b60016000819055508060ff1660808160ff168152505050620000c9565b600080fd5b600060ff82169050919050565b620000718162000059565b81146200007d57600080fd5b50565b600081519050620000918162000066565b92915050565b600060208284031215620000b057620000af62000054565b5b6000620000c08482850162000080565b91505092915050565b608051611c3b620000ec600039600081816101d50152610c220152611c3b6000f3fe60806040526004361061007b5760003560e01c80639038e6931161004e5780639038e6931461014e5780639f37092a14610165578063b2ddee0614610181578063f772adf1146101aa5761007b565b8063231421eb1461008057806330cfeda9146100ab57806388700d1c146100e857806389bfd38f14610125575b600080fd5b34801561008c57600080fd5b506100956101d3565b6040516100a291906116af565b60405180910390f35b3480156100b757600080fd5b506100d260048036038101906100cd919061172d565b6101f7565b6040516100df9190611773565b60405180910390f35b3480156100f457600080fd5b5061010f600480360381019061010a91906117ba565b610240565b60405161011c9190611847565b60405180910390f35b34801561013157600080fd5b5061014c60048036038101906101479190611862565b61030b565b005b34801561015a57600080fd5b506101636107d4565b005b61017f600480360381019061017a91906117ba565b610947565b005b34801561018d57600080fd5b506101a860048036038101906101a391906117ba565b610f06565b005b3480156101b657600080fd5b506101d160048036038101906101cc9190611862565b61129c565b005b7f000000000000000000000000000000000000000000000000000000000000000081565b6000600260008373ffffffffffffffffffffffffffffffffffffffff1673ffffffffffffffffffffffffffffffffffffffff168152602001908152602001600020549050919050565b610248611663565b600160008473ffffffffffffffffffffffffffffffffffffffff1673ffffffffffffffffffffffffffffffffffffffff16815260200190815260200160002060008381526020019081526020016000206040518060400160405290816000820160009054906101000a900473ffffffffffffffffffffffffffffffffffffffff1673ffffffffffffffffffffffffffffffffffffffff1673ffffffffffffffffffffffffffffffffffffffff168152602001600182015481525050905092915050565b82823360008390508173ffffffffffffffffffffffffffffffffffffffff168173ffffffffffffffffffffffffffffffffffffffff16636352211e856040518263ffffffff1660e01b81526004016103639190611773565b602060405180830381865afa158015610380573d6000803e3d6000fd5b505050506040513d601f19601f820116820180604052508101906103a491906118ca565b73ffffffffffffffffffffffffffffffffffffffff16146103f1576040517f30cd747100000000000000000000000000000000000000000000000000000000815260040160405180910390fd5b600087876000600160008473ffffffffffffffffffffffffffffffffffffffff1673ffffffffffffffffffffffffffffffffffffffff16815260200190815260200160002060008381526020019081526020016000206040518060400160405290816000820160009054906101000a900473ffffffffffffffffffffffffffffffffffffffff1673ffffffffffffffffffffffffffffffffffffffff1673ffffffffffffffffffffffffffffffffffffffff1681526020016001820154815250509050831561053657600073ffffffffffffffffffffffffffffffffffffffff16816000015173ffffffffffffffffffffffffffffffffffffffff16036105315782826040517f2e650be0000000000000000000000000000000000000000000000000000000008152600401610528929190611906565b60405180910390fd5b6105ae565b600073ffffffffffffffffffffffffffffffffffffffff16816000015173ffffffffffffffffffffffffffffffffffffffff16146105ad5782826040517ffa1d424f0000000000000000000000000000000000000000000000000000000081526004016105a4929190611906565b60405180910390fd5b5b60008b90503073ffffffffffffffffffffffffffffffffffffffff168173ffffffffffffffffffffffffffffffffffffffff1663081812fc8d6040518263ffffffff1660e01b81526004016106039190611773565b602060405180830381865afa158015610620573d6000803e3d6000fd5b505050506040513d601f19601f8201168201806040525081019061064491906118ca565b73ffffffffffffffffffffffffffffffffffffffff1614610691576040517f94f87f7200000000000000000000000000000000000000000000000000000000815260040160405180910390fd5b60405180604001604052803373ffffffffffffffffffffffffffffffffffffffff1681526020018b815250600160008e73ffffffffffffffffffffffffffffffffffffffff1673ffffffffffffffffffffffffffffffffffffffff16815260200190815260200160002060008d815260200190815260200160002060008201518160000160006101000a81548173ffffffffffffffffffffffffffffffffffffffff021916908373ffffffffffffffffffffffffffffffffffffffff160217905550602082015181600101559050508a8c73ffffffffffffffffffffffffffffffffffffffff163373ffffffffffffffffffffffffffffffffffffffff167fd547e933094f12a9159076970143ebe73234e64480317844b0dcb36117116de48d6040516107be9190611773565b60405180910390a4505050505050505050505050565b6000600260003373ffffffffffffffffffffffffffffffffffffffff1673ffffffffffffffffffffffffffffffffffffffff16815260200190815260200160002054905060008111610852576040517faaefe00600000000000000000000000000000000000000000000000000000000815260040160405180910390fd5b6000600260003373ffffffffffffffffffffffffffffffffffffffff1673ffffffffffffffffffffffffffffffffffffffff1681526020019081526020016000208190555060003373ffffffffffffffffffffffffffffffffffffffff16826040516108bd90611960565b60006040518083038185875af1925050503d80600081146108fa576040519150601f19603f3d011682016040523d82523d6000602084013e6108ff565b606091505b5050905080610943576040517f08c379a000000000000000000000000000000000000000000000000000000000815260040161093a906119d2565b60405180910390fd5b5050565b61094f61160a565b600182826000600160008473ffffffffffffffffffffffffffffffffffffffff1673ffffffffffffffffffffffffffffffffffffffff16815260200190815260200160002060008381526020019081526020016000206040518060400160405290816000820160009054906101000a900473ffffffffffffffffffffffffffffffffffffffff1673ffffffffffffffffffffffffffffffffffffffff1673ffffffffffffffffffffffffffffffffffffffff16815260200160018201548152505090508315610a9457600073ffffffffffffffffffffffffffffffffffffffff16816000015173ffffffffffffffffffffffffffffffffffffffff1603610a8f5782826040517f2e650be0000000000000000000000000000000000000000000000000000000008152600401610a86929190611906565b60405180910390fd5b610b0c565b600073ffffffffffffffffffffffffffffffffffffffff16816000015173ffffffffffffffffffffffffffffffffffffffff1614610b0b5782826040517ffa1d424f000000000000000000000000000000000000000000000000000000008152600401610b02929190611906565b60405180910390fd5b5b6000600160008873ffffffffffffffffffffffffffffffffffffffff1673ffffffffffffffffffffffffffffffffffffffff16815260200190815260200160002060008781526020019081526020016000206040518060400160405290816000820160009054906101000a900473ffffffffffffffffffffffffffffffffffffffff1673ffffffffffffffffffffffffffffffffffffffff1673ffffffffffffffffffffffffffffffffffffffff16815260200160018201548152505090508060200151341015610c1c57868682602001516040517f2425ddb3000000000000000000000000000000000000000000000000000000008152600401610c13939291906119f2565b60405180910390fd5b600060647f000000000000000000000000000000000000000000000000000000000000000060ff1634610c4f9190611a58565b610c599190611ac9565b905060008873ffffffffffffffffffffffffffffffffffffffff1663d48e638a896040518263ffffffff1660e01b8152600401610c969190611773565b602060405180830381865afa158015610cb3573d6000803e3d6000fd5b505050506040513d601f19601f82011682018060405250810190610cd791906118ca565b90508134610ce59190611afa565b60026000856000015173ffffffffffffffffffffffffffffffffffffffff1673ffffffffffffffffffffffffffffffffffffffff1681526020019081526020016000206000828254610d379190611b2e565b9250508190555081600260008373ffffffffffffffffffffffffffffffffffffffff1673ffffffffffffffffffffffffffffffffffffffff1681526020019081526020016000206000828254610d8d9190611b2e565b92505081905550600160008a73ffffffffffffffffffffffffffffffffffffffff1673ffffffffffffffffffffffffffffffffffffffff1681526020019081526020016000206000898152602001908152602001600020600080820160006101000a81549073ffffffffffffffffffffffffffffffffffffffff0219169055600182016000905550508873ffffffffffffffffffffffffffffffffffffffff166323b872dd8460000151338b6040518463ffffffff1660e01b8152600401610e5793929190611b62565b600060405180830381600087803b158015610e7157600080fd5b505af1158015610e85573d6000803e3d6000fd5b50505050878973ffffffffffffffffffffffffffffffffffffffff163373ffffffffffffffffffffffffffffffffffffffff167f263223b1dd81e51054a4e6f791d45a4a1ddb4aadcd93a2dfd892615c3fdac1878660200151604051610eeb9190611773565b60405180910390a450505050505050610f02611659565b5050565b81813360008390508173ffffffffffffffffffffffffffffffffffffffff168173ffffffffffffffffffffffffffffffffffffffff16636352211e856040518263ffffffff1660e01b8152600401610f5e9190611773565b602060405180830381865afa158015610f7b573d6000803e3d6000fd5b505050506040513d601f19601f82011682018060405250810190610f9f91906118ca565b73ffffffffffffffffffffffffffffffffffffffff1614610fec576040517f30cd747100000000000000000000000000000000000000000000000000000000815260040160405180910390fd5b600186866000600160008473ffffffffffffffffffffffffffffffffffffffff1673ffffffffffffffffffffffffffffffffffffffff16815260200190815260200160002060008381526020019081526020016000206040518060400160405290816000820160009054906101000a900473ffffffffffffffffffffffffffffffffffffffff1673ffffffffffffffffffffffffffffffffffffffff1673ffffffffffffffffffffffffffffffffffffffff1681526020016001820154815250509050831561113157600073ffffffffffffffffffffffffffffffffffffffff16816000015173ffffffffffffffffffffffffffffffffffffffff160361112c5782826040517f2e650be0000000000000000000000000000000000000000000000000000000008152600401611123929190611906565b60405180910390fd5b6111a9565b600073ffffffffffffffffffffffffffffffffffffffff16816000015173ffffffffffffffffffffffffffffffffffffffff16146111a85782826040517ffa1d424f00000000000000000000000000000000000000000000000000000000815260040161119f929190611906565b60405180910390fd5b5b600160008b73ffffffffffffffffffffffffffffffffffffffff1673ffffffffffffffffffffffffffffffffffffffff16815260200190815260200160002060008a8152602001908152602001600020600080820160006101000a81549073ffffffffffffffffffffffffffffffffffffffff0219169055600182016000905550508973ffffffffffffffffffffffffffffffffffffffff163373ffffffffffffffffffffffffffffffffffffffff167f057277cb164eea0ad658a49af4e4e3251746a8c11bc0b52a8b86f6f9f3d62abf8b6040516112889190611773565b60405180910390a350505050505050505050565b82823360008390508173ffffffffffffffffffffffffffffffffffffffff168173ffffffffffffffffffffffffffffffffffffffff16636352211e856040518263ffffffff1660e01b81526004016112f49190611773565b602060405180830381865afa158015611311573d6000803e3d6000fd5b505050506040513d601f19601f8201168201806040525081019061133591906118ca565b73ffffffffffffffffffffffffffffffffffffffff1614611382576040517f30cd747100000000000000000000000000000000000000000000000000000000815260040160405180910390fd5b600187876000600160008473ffffffffffffffffffffffffffffffffffffffff1673ffffffffffffffffffffffffffffffffffffffff16815260200190815260200160002060008381526020019081526020016000206040518060400160405290816000820160009054906101000a900473ffffffffffffffffffffffffffffffffffffffff1673ffffffffffffffffffffffffffffffffffffffff1673ffffffffffffffffffffffffffffffffffffffff168152602001600182015481525050905083156114c757600073ffffffffffffffffffffffffffffffffffffffff16816000015173ffffffffffffffffffffffffffffffffffffffff16036114c25782826040517f2e650be00000000000000000000000000000000000000000000000000000000081526004016114b9929190611906565b60405180910390fd5b61153f565b600073ffffffffffffffffffffffffffffffffffffffff16816000015173ffffffffffffffffffffffffffffffffffffffff161461153e5782826040517ffa1d424f000000000000000000000000000000000000000000000000000000008152600401611535929190611906565b60405180910390fd5b5b88600160008d73ffffffffffffffffffffffffffffffffffffffff1673ffffffffffffffffffffffffffffffffffffffff16815260200190815260200160002060008c815260200190815260200160002060010181905550898b73ffffffffffffffffffffffffffffffffffffffff163373ffffffffffffffffffffffffffffffffffffffff167fd547e933094f12a9159076970143ebe73234e64480317844b0dcb36117116de48c6040516115f59190611773565b60405180910390a45050505050505050505050565b60026000540361164f576040517f08c379a000000000000000000000000000000000000000000000000000000000815260040161164690611be5565b60405180910390fd5b6002600081905550565b6001600081905550565b6040518060400160405280600073ffffffffffffffffffffffffffffffffffffffff168152602001600081525090565b600060ff82169050919050565b6116a981611693565b82525050565b60006020820190506116c460008301846116a0565b92915050565b600080fd5b600073ffffffffffffffffffffffffffffffffffffffff82169050919050565b60006116fa826116cf565b9050919050565b61170a816116ef565b811461171557600080fd5b50565b60008135905061172781611701565b92915050565b600060208284031215611743576117426116ca565b5b600061175184828501611718565b91505092915050565b6000819050919050565b61176d8161175a565b82525050565b60006020820190506117886000830184611764565b92915050565b6117978161175a565b81146117a257600080fd5b50565b6000813590506117b48161178e565b92915050565b600080604083850312156117d1576117d06116ca565b5b60006117df85828601611718565b92505060206117f0858286016117a5565b9150509250929050565b611803816116ef565b82525050565b6118128161175a565b82525050565b60408201600082015161182e60008501826117fa565b5060208201516118416020850182611809565b50505050565b600060408201905061185c6000830184611818565b92915050565b60008060006060848603121561187b5761187a6116ca565b5b600061188986828701611718565b935050602061189a868287016117a5565b92505060406118ab868287016117a5565b9150509250925092565b6000815190506118c481611701565b92915050565b6000602082840312156118e0576118df6116ca565b5b60006118ee848285016118b5565b91505092915050565b611900816116ef565b82525050565b600060408201905061191b60008301856118f7565b6119286020830184611764565b9392505050565b600081905092915050565b50565b600061194a60008361192f565b91506119558261193a565b600082019050919050565b600061196b8261193d565b9150819050919050565b600082825260208201905092915050565b7f5472616e73666572206661696c65640000000000000000000000000000000000600082015250565b60006119bc600f83611975565b91506119c782611986565b602082019050919050565b600060208201905081810360008301526119eb816119af565b9050919050565b6000606082019050611a0760008301866118f7565b611a146020830185611764565b611a216040830184611764565b949350505050565b7f4e487b7100000000000000000000000000000000000000000000000000000000600052601160045260246000fd5b6000611a638261175a565b9150611a6e8361175a565b9250828202611a7c8161175a565b91508282048414831517611a9357611a92611a29565b5b5092915050565b7f4e487b7100000000000000000000000000000000000000000000000000000000600052601260045260246000fd5b6000611ad48261175a565b9150611adf8361175a565b925082611aef57611aee611a9a565b5b828204905092915050565b6000611b058261175a565b9150611b108361175a565b9250828203905081811115611b2857611b27611a29565b5b92915050565b6000611b398261175a565b9150611b448361175a565b9250828201905080821115611b5c57611b5b611a29565b5b92915050565b6000606082019050611b7760008301866118f7565b611b8460208301856118f7565b611b916040830184611764565b949350505050565b7f5265656e7472616e637947756172643a207265656e7472616e742063616c6c00600082015250565b6000611bcf601f83611975565b9150611bda82611b99565b602082019050919050565b60006020820190508181036000830152611bfe81611bc2565b905091905056fea2646970667358221220d90da6d84e4263d6beae4c3e5040bc683b9406335ba5948f6955293c8be4b43964736f6c63430008110033",
  "devdoc": {
    "kind": "dev",
    "methods": {},
    "version": 1
  },
  "userdoc": {
    "kind": "user",
    "methods": {},
    "version": 1
  },
  "storageLayout": {
    "storage": [
      {
        "astId": 10,
        "contract": "contracts/NFTMarketplace.sol:NftMarketplace",
        "label": "_status",
        "offset": 0,
        "slot": "0",
        "type": "t_uint256"
      },
      {
        "astId": 2925,
        "contract": "contracts/NFTMarketplace.sol:NftMarketplace",
        "label": "s_listings",
        "offset": 0,
        "slot": "1",
        "type": "t_mapping(t_address,t_mapping(t_uint256,t_struct(Listing)2888_storage))"
      },
      {
        "astId": 2929,
        "contract": "contracts/NFTMarketplace.sol:NftMarketplace",
        "label": "s_proceeds",
        "offset": 0,
        "slot": "2",
        "type": "t_mapping(t_address,t_uint256)"
      }
    ],
    "types": {
      "t_address": {
        "encoding": "inplace",
        "label": "address",
        "numberOfBytes": "20"
      },
      "t_mapping(t_address,t_mapping(t_uint256,t_struct(Listing)2888_storage))": {
        "encoding": "mapping",
        "key": "t_address",
        "label": "mapping(address => mapping(uint256 => struct NftMarketplace.Listing))",
        "numberOfBytes": "32",
        "value": "t_mapping(t_uint256,t_struct(Listing)2888_storage)"
      },
      "t_mapping(t_address,t_uint256)": {
        "encoding": "mapping",
        "key": "t_address",
        "label": "mapping(address => uint256)",
        "numberOfBytes": "32",
        "value": "t_uint256"
      },
      "t_mapping(t_uint256,t_struct(Listing)2888_storage)": {
        "encoding": "mapping",
        "key": "t_uint256",
        "label": "mapping(uint256 => struct NftMarketplace.Listing)",
        "numberOfBytes": "32",
        "value": "t_struct(Listing)2888_storage"
      },
      "t_struct(Listing)2888_storage": {
        "encoding": "inplace",
        "label": "struct NftMarketplace.Listing",
        "members": [
          {
            "astId": 2885,
            "contract": "contracts/NFTMarketplace.sol:NftMarketplace",
            "label": "seller",
            "offset": 0,
            "slot": "0",
            "type": "t_address"
          },
          {
            "astId": 2887,
            "contract": "contracts/NFTMarketplace.sol:NftMarketplace",
            "label": "price",
            "offset": 0,
            "slot": "1",
            "type": "t_uint256"
          }
        ],
        "numberOfBytes": "64"
      },
      "t_uint256": {
        "encoding": "inplace",
        "label": "uint256",
        "numberOfBytes": "32"
      }
    }
  }
}